:100000000C945D000C9485000C9485000C94850084
:100010000C9485000C9485000C9485000C9485004C
:100020000C9485000C9485000C9485000C9485003C
:100030000C9485000C9485000C9485000C9485002C
:100040000C945D040C9485000C94AE020C94E002B8
:100050000C9485000C9485000C9485000C9485000C
:100060000C9485000C94850000000008000201003B
:100070000003040700000000000000000102040863
:100080001020408001020408102001020408102002
:10009000040404040404040402020202020203032E
:1000A0000303030300000000250028002B000000CC
:1000B0000000240027002A00100311241FBECFEFE8
:1000C000D8E0DEBFCDBF11E0A0E0B1E0E8E1FAE0AA
:1000D00002C005900D92A432B107D9F721E0A4E245
:1000E000B1E001C01D92AC3CB207E1F710E0CAEBF1
:1000F000D0E004C02297FE010E940605C83BD1074C
:10010000C9F70E944E040C940A050C94000026E0E6
:1001100040E855E260E070E086E291E00E944C0227
:1001200061E08DE00E94FA0060E08DE00C94330104
:10013000809100010E94B4009093250180932401D6
:100140004AE050E0BC0186E291E00E9435048091D3
:100150002401909125018039914014F461E001C09F
:1001600060E08DE00C9433018E3008F08E50877083
:100170002091020190E4299F90011124822B809309
:100180007C0080917A00806480937A0080917A006C
:1001900086FDFCCF809178002091790090E0922B31
:1001A0000895833081F028F4813099F08230A1F0F5
:1001B00008958730A9F08830B9F08430D1F4809167
:1001C00080008F7D03C0809180008F7780938000B6
:1001D000089584B58F7702C084B58F7D84BD08955E
:1001E0008091B0008F7703C08091B0008F7D8093A5
:1001F000B0000895CF93DF9390E0FC01E458FF4FE7
:100200002491FC01E057FF4F8491882349F190E04D
:10021000880F991FFC01E255FF4FA591B4918C55B1
:100220009F4FFC01C591D4919FB7611108C0F8940C
:100230008C91209582238C93888182230AC062301E
:1002400051F4F8948C91322F309583238C938881CC
:10025000822B888304C0F8948C91822B8C939FBF4F
:10026000DF91CF9108950F931F93CF93DF931F9248
:10027000CDB7DEB7282F30E0F901E859FF4F849160
:10028000F901E458FF4F1491F901E057FF4F049131
:100290000023C9F0882321F069830E94D10069817D
:1002A000E02FF0E0EE0FFF1FEC55FF4FA591B4914A
:1002B0009FB7F8948C91611103C01095812301C000
:1002C000812B8C939FBF0F90DF91CF911F910F9146
:1002D0000895FC01818D228D90E0805C9F4F821BF0
:1002E00091098F7399270895FC01918D828D98173C
:1002F00031F0828DE80FF11D858D90E008958FEF2C
:100300009FEF0895FC01918D828D981761F0828D89
:10031000DF01A80FB11D5D968C91928D9F5F9F7339
:10032000928F90E008958FEF9FEF089586E093E01D
:10033000892B49F080E090E0892B29F00E94060388
:1003400081110C9400000895FC01848DDF01A80F39
:10035000B11DA35ABF4F2C91848D90E001968F73ED
:100360009927848FA689B7892C93A089B1898C910C
:1003700080648C93938D848D981306C00288F389D2
:10038000E02D80818F7D80830895CF93DF93EC01F2
:10039000888D8823C9F0EA89FB89808185FD05C0A5
:1003A000A889B9898C9186FD0FC00FB607FCF5CFDF
:1003B000808185FFF2CFA889B9898C9185FFEDCF27
:1003C000CE010E94A401E7CFDF91CF910895CF9293
:1003D000DF92FF920F931F93CF93DF931F92CDB7BE
:1003E000DEB76C0181E0D60158968C9358975B96E6
:1003F0009C915B975C968C915C97981307C0509684
:10040000ED91FC915197808185FD2EC0F601038D01
:1004100010E00F5F1F4F0F731127F02EF601848D30
:10042000F81211C00FB607FCF9CFD6015096ED9126
:10043000FC915197808185FFF1CFC60169830E94AD
:10044000A4016981EBCF838DE80FF11DE35AFF4FC3
:100450006083D6015B960C935B975296ED91FC916D
:100460005397808180620CC0D6015696ED91FC9125
:10047000579760835096ED91FC91519780818064ED
:10048000808381E090E00F90DF91CF911F910F91D9
:10049000FF90DF90CF900895BF92CF92DF92EF92BE
:1004A000FF92CF93DF93EC016A017B01B22EE889C2
:1004B000F98982E08083411581EE58076105710555
:1004C000A1F060E079E08DE390E0A70196010E9441
:1004D000E204215031094109510956954795379554
:1004E0002795211580E1380798F0E889F98910826D
:1004F00060E874E88EE190E0A70196010E94E204B2
:10050000215031094109510956954795379527954D
:10051000EC85FD853083EE85FF852083188EEC8980
:10052000FD89B082EA89FB89808180618083EA89C4
:10053000FB89808188608083EA89FB89808180686B
:100540008083EA89FB8980818F7D8083DF91CF91D1
:10055000FF90EF90DF90CF90BF9008951F920F9281
:100560000FB60F9211242F938F939F93EF93FF93C6
:10057000E0913601F09137018081E0913C01F091EA
:100580003D0182FD12C0908180913F018F5F8F738A
:1005900020914001821751F0E0913F01F0E0EA5DC7
:1005A000FE4F958F80933F0101C08081FF91EF91B5
:1005B0009F918F912F910F900FBE0F901F901895C4
:1005C0001F920F920FB60F9211242F933F934F93C8
:1005D0005F936F937F938F939F93AF93BF93EF93AB
:1005E000FF9386E291E00E94A401FF91EF91BF91F9
:1005F000AF919F918F917F916F915F914F913F91BB
:100600002F910F900FBE0F901F90189586E291E0EA
:100610000E94690121E0892B09F420E0822F0895CE
:10062000109229011092280188EE93E0A0E0B0E03A
:1006300080932A0190932B01A0932C01B0932D015C
:1006400087E091E0909327018093260185EC90E06C
:10065000909333018093320184EC90E090933501C4
:100660008093340180EC90E09093370180933601C1
:1006700081EC90E0909339018093380182EC90E016
:1006800090933B0180933A0186EC90E090933D017A
:1006900080933C0110923F01109240011092410161
:1006A000109242010895CF92DF92EF92FF920F9342
:1006B0001F93CF93DF937C016A01EB0100E010E010
:1006C0000C151D0571F06991D701ED91FC91019018
:1006D000F081E02DC7010995892B19F00F5F1F4F9D
:1006E000EFCFC801DF91CF911F910F91FF90EF9055
:1006F000DF90CF9008956115710581F0DB010D90B9
:100700000020E9F7AD0141505109461B570BDC01B0
:10071000ED91FC910280F381E02D099480E090E05E
:100720000895DC01ED91FC910190F081E02D099498
:1007300063E171E00C947B038F929F92AF92BF9222
:10074000DF92EF92FF920F931F93CF93DF93CDB77A
:10075000DEB7A1970FB6F894DEBF0FBECDBF7C0108
:10076000F42FD52ECB0119A2223008F42AE08E01F5
:100770000F5D1F4F822E912CA12CB12C6F2F7D2D40
:10078000A50194010E94E204F22FD32ECA01015068
:1007900011096A3014F4E0E301C0E7E3E60FD80181
:1007A000EC93232B242B252B49F7B801C7010E947A
:1007B0007B03A1960FB6F894DEBF0FBECDBFDF91CD
:1007C000CF911F910F91FF90EF90DF90BF90AF906E
:1007D0009F908F900895CF92DF92EF92FF920F93A8
:1007E0001F93CF93DF93EC016A017B012115310543
:1007F00079F4E881F9810190F081E02D642FDF9197
:10080000CF911F910F91FF90EF90DF90CF900994BF
:100810002A303105E9F477FF1AC06DE20E94910396
:100820008C0144275527BA014C195D096E097F09CF
:100830002AE0CE010E949C03800F911FDF91CF918F
:100840001F910F91FF90EF90DF90CF9008952AE0D5
:10085000B701A601CE01DF91CF911F910F91FF90BB
:10086000EF90DF90CF900C949C030F931F93CF9346
:10087000DF93EC019A01AB01662757FD6095762F57
:100880000E94EB038C01CE010E949803800F911F00
:10089000DF91CF911F910F91089508950E94A704B1
:1008A0000E944D040E948700C6E9D1E00E94980092
:1008B0002097E1F30E949601F9CF1F920F920FB695
:1008C0000F9211242F933F938F939F93AF93BF93D6
:1008D0008091C4019091C501A091C601B091C7015A
:1008E0003091C30123E0230F2D3720F40196A11D81
:1008F000B11D05C026E8230F0296A11DB11D20934E
:10090000C3018093C4019093C501A093C601B09325
:10091000C7018091C8019091C901A091CA01B0910D
:10092000CB010196A11DB11D8093C8019093C9010F
:10093000A093CA01B093CB01BF91AF919F918F91CA
:100940003F912F910F900FBE0F901F9018957894A4
:1009500084B5826084BD84B5816084BD85B58260C4
:1009600085BD85B5816085BDEEE6F0E08081816062
:100970008083E1E8F0E01082808182608083808162
:1009800081608083E0E8F0E0808181608083E1EB3A
:10099000F0E0808184608083E0EBF0E08081816022
:1009A0008083EAE7F0E080818460808380818260D8
:1009B00080838081816080838081806880831092C1
:1009C000C1000895A1E21A2EAA1BBB1BFD010DC098
:1009D000AA1FBB1FEE1FFF1FA217B307E407F507EF
:1009E00020F0A21BB30BE40BF50B661F771F881FCB
:1009F000991F1A9469F760957095809590959B0161
:100A0000AC01BD01CF010895EE0FFF1F0590F491D9
:080A1000E02D0994F894FFCFDA
:100A180005000100000000E7015303690182017429
:100A280001C5010D0A006E616E00696E66006F7681
:040A380066002E0026
:107E0000112484B714BE81FFF0D085E080938100F7
:107E100082E08093C00088E18093C10086E0809377
:107E2000C20080E18093C4008EE0C9D0259A86E02C
:107E300020E33CEF91E0309385002093840096BBD3
:107E4000B09BFECF1D9AA8958150A9F7CC24DD24C4
:107E500088248394B5E0AB2EA1E19A2EF3E0BF2EE7
:107E6000A2D0813461F49FD0082FAFD0023811F036
:107E7000013811F484E001C083E08DD089C08234E0
:107E800011F484E103C0853419F485E0A6D080C0E4
:107E9000853579F488D0E82EFF2485D0082F10E0AE
:107EA000102F00270E291F29000F111F8ED06801E7
:107EB0006FC0863521F484E090D080E0DECF843638
:107EC00009F040C070D06FD0082F6DD080E0C81688
:107ED00080E7D80618F4F601B7BEE895C0E0D1E017
:107EE00062D089930C17E1F7F0E0CF16F0E7DF06D8
:107EF00018F0F601B7BEE89568D007B600FCFDCFD4
:107F0000A601A0E0B1E02C9130E011968C91119780
:107F100090E0982F8827822B932B1296FA010C0160
:107F200087BEE89511244E5F5F4FF1E0A038BF0790
:107F300051F7F601A7BEE89507B600FCFDCF97BE46
:107F4000E89526C08437B1F42ED02DD0F82E2BD052
:107F50003CD0F601EF2C8F010F5F1F4F84911BD097
:107F6000EA94F801C1F70894C11CD11CFA94CF0C13
:107F7000D11C0EC0853739F428D08EE10CD085E9AC
:107F80000AD08FE07ACF813511F488E018D01DD067
:107F900080E101D065CF982F8091C00085FFFCCF94
:107FA0009093C60008958091C00087FFFCCF809118
:107FB000C00084FD01C0A8958091C6000895E0E648
:107FC000F0E098E1908380830895EDDF803219F02E
:107FD00088E0F5DFFFCF84E1DECF1F93182FE3DFCA
:107FE0001150E9F7F2DF1F91089580E0E8DFEE27F6
:047FF000FF270994CA
:027FFE00040479
:0400000300007E007B
:00000001FF
